:020000040800F2
:1000000000500020C9160008000000000000000099
:1000100000000000000000000000000000000000E0
:1000200000000000000000000000000000000000D0
:1000300000000000000000000000000000000000C0
:1000400000000000000000000000000000000000B0
:1000500000000000000000000000000000000000A0
:100060000000000000000000000000000000000090
:100070000000000000000000000000000000000080
:100080000000000000000000000000000000000070
:100090000000000000000000000000000000000060
:1000A0000000000000000000000000000000000050
:1000B0000000000000000000000000000000000040
:1000C0000000000000000000000000000000000030
:1000D0000000000000000000000000000000000020
:1000E0000000000000000000000000000000000010
:1000F0000000000000000000000000000000000000
:1001000000000000000000000000000000000000EF
:1001100000000000000000000000000000000000DF
:1001200000000000000000000000000000000000CF
:1001300000000000000000000000000000000000BF
:1001400000000000000000000000000000000000AF
:10015000000000000000000000000000000000009F
:10016000000000000000000000000000000000008F
:10017000000000000000000000000000000000007F
:10018000000000000000000000000000000000006F
:10019000000000000000000000000000000000005F
:1001A000000000000000000000000000000000004F
:1001B000000000000000000000000000000000003F
:1001C000000000000000000000000000000000002F
:1001D000000000000000000000000000000000001F
:1001E000000000000000000000000000000000000F
:1001F00000000000000000000000000000000000FF
:100200000CB470B50C4600256FF000469CB00A4A4D
:1002100020AB059253F8042B02A9CDE901341B95BC
:1002200004960796069400F013F9029B1D701CB00B
:10023000BDE8704002B070470802FFFF0EB470B511
:1002400004466FF0004600259DB00B4A21AB0B49D8
:10025000106853F8042B059102A9CDE901340496E6
:1002600007961B95069400F0F3F8029B1D701DB0D5
:10027000BDE8704003B07047000000200802FFFF97
:100280002DE9F0471D468F680C46AF4216460B68B5
:1002900036D8B1F90CC01CF4906F0ED13D4618460B
:1002A00031462A4600F040FB0020A368DF1B23688C
:1002B000A7602B442360BDE8F0874A69096902EB17
:1002C00042025F1A02EBD2726B1C52103B44934203
:1002D00092BF914699461A461CF4806F804611D011
:1002E000114600F043FA824600B33A46216900F015
:1002F00099FBA38923F4906343F08003A38105E075
:100300002F46CCE700F004FC824658B10AEB070305
:10031000A9EB0707A760C4F810A02F46C4F81490F3
:100320002360BCE74046216900F0A0FA0C22A389B3
:100330004FF0FF3043F04003C8F80020A381BAE734
:100340002DE9F04F936883B0924617680190002B17
:1003500076D04FF0000B0C465D468B680A6848E08B
:10036000B4F90CC01CF4906F2FD0D4E90403A2EBB5
:10037000000803EB430202EBD27208F101015210B4
:100380002944914292BF914689460A461CF4806FE7
:1003900039D01146019800F0E9F9064600283DD011
:1003A0004246216900F03EFBA28922F4906242F0AD
:1003B0008002A28106EB0800A9EB08022661A8468C
:1003C0002E46A2602060C4F814903246594600F0D0
:1003D000ABFADAF80810A3682268A3EB08033244EA
:1003E000491BA3602260CAF8081049B3D7E900B5D9
:1003F000083798461046002DF8D09D421E46AFD2D1
:10040000A8462E46E1E70146019800F081FB06462A
:100410000028CFD10198216900F028FA0C21A38986
:10042000019D43F0400329600022A3814FF0FF307B
:100430000023CAF80820CAF8043003B0BDE8F08FE2
:1004400000200023CAF8043003B0BDE8F08F00BFDD
:100450002DE9F04F1C468B8989461D06824693463E
:100460009DB003D50B69002B00F0EE80002343F212
:10047000200209939BF8003001277C4E0394ADF8CD
:100480002920002B71D05D4603E015F8013F002BB9
:1004900073D0252BF9D1B5EB0B0471D12A78002A42
:1004A00063D000234FF0FF320135CDE905230493DB
:1004B00007938DF853301A9306E02546049B801B62
:1004C00007FA00F0034304932C46052214F8011B9D
:1004D000304600F027FDA3460028EED1049BD90644
:1004E00044BF20228DF853201A0748BF2B222978B9
:1004F00048BF8DF853202A294FD1039A116804323E
:10050000002903927BDB079169782E295BD0584C38
:100510000322204600F006FD38B14022049B001B58
:10052000824013430BF1010B04931BF8011B0622BD
:1005300050488DF8281000F0F5FC002865D04E4B8F
:10054000002B55D003A900914A4650464B4B04A9B5
:10055000AFF300808046B8F1FF3F06D0099B4344CB
:1005600009939BF80030002B8DD1B9F80C305B0655
:1005700079D409981DB0BDE8F08FB5EB0B04F4D029
:1005800023465A4649465046FFF77AFE0130ECD0E2
:10059000099B2A782344099381E7A1F13002092AB3
:1005A00088BFAB46B1D8079B00E00134217803EB4C
:1005B000830302EB4303A1F13002092AF5D92E2966
:1005C000A3460793A3D19BF801102A2927D1039BA7
:1005D0000BF102001A680433002A0393B8BF4FF0EE
:1005E000FF339BF8021005928346B8BF05938EE750
:1005F000039B073323F0070308330393AEE7494215
:1006000043F00203079104937EE703A900914A4651
:1006100050461A4B04A900F03FFB80469BE700239D
:10062000A1F13002092A0BF1010B05933FF66FAFE0
:100630001BF8011F03EB830302EB4303A1F130021C
:10064000092AF5D9059362E7402100F08FF8C9F82F
:100650000000C9F8100018B14023C9F8143005E7AC
:100660000C23CAF800304FF0FF3083E784180008ED
:100670008C18000890180008000000008102000893
:1006800070B5860747D0541E002A3ED00346CAB232
:1006900001E0013C39D303F8012B9D07F9D1032C6C
:1006A0002CD9CDB205EB05250F2C1A4605EB0545D7
:1006B00034D9A4F1100C2CF00F0603F1100EB6443F
:1006C0004FEA1C1CC2E90055C2E9025510327245BE
:1006D000F8D10CF1010214F00C0F03EB021204F03C
:1006E0000F0C13D0ACF1040323F0030304331344C1
:1006F00042F8045B9342FBD10CF003042CB1C9B265
:100700001C4403F8011BA342FBD170BD6446134691
:10071000002CF4D1F9E703461446C0E7A446E1E70C
:1007200070B5114E054633680C46BBB121462846CC
:1007300000F044FC431C01460CD0C41C24F003040C
:10074000A04205D02846611A00F038FC013001D0E3
:10075000204670BD4FF0FF34204670BD194600F0B2
:100760002DFC3060E2E700BF700000202DE9F84367
:10077000CD1C25F0030508350C2D38BF0C25002DA8
:10078000064618DBA94216D8DFF8DC8000F0C6FB6D
:10079000D8F80420A2B1144603E0636822467BB176
:1007A0001C4623685B1BF8D40B2B1FD8944263684C
:1007B00054D053600CE00C2333600020BDE8F88374
:1007C00029463046FFF7ACFF431C044619D00560AC
:1007D000304600F0A5FB04F10B00231D20F00700BC
:1007E000C21A1CBF1B1AA350BDE8F88361199442BA
:1007F000256014BF5160C8F80410635163684B60F2
:10080000E6E7D8F804701FB33C467F68002FFBD1A1
:1008100023683946304604EB030900F0CFFB8145DD
:1008200016D123683046ED1A2946FFF779FF0130CB
:100830000ED02368D8F804202B442360536883B17A
:10084000A34203D01A465B689C42FBD10023B0E769
:100850000C233046336000F063FBAEE7C8F8043089
:10086000B6E7C8F80470B3E770000020002950D044
:1008700038B551F8043C0C1F002BB8BFE4180546EE
:1008800000F04CFB274A13682BB1A3420CD9216816
:10089000601883422CD0284663601460BDE838405D
:1008A00000F03EBBA3420FD81A465B68002BF9D17B
:1008B00011685018844217D02CD3636054602846C6
:1008C000BDE8384000F02CBB11685018A04214D08D
:1008D00020D8216860188342EFD118685B6808440B
:1008E000C4E900035460EAE723680B441360E6E7B9
:1008F00018685B6808442060CDE720680144501800
:1009000083421160DBD1D3E900040144C2E9001441
:10091000D5E770470C2328462B60BDE8384000F02F
:10092000FFBA00BF7400002088420ED98B188342A2
:100930000BD900EB020C002A6DD0624613F801CDF2
:10094000994202F801CDF9D170470F2A0FD803461A
:1009500002F1FF3C002A5ED00CF1010C013B8C44FB
:1009600011F8012B614503F8012FF9D1704740EAD6
:1009700001039B0750D1A2F1100370B501F1200CC7
:1009800023F00F0501F1100E00F11004AC441B0917
:100990005EF8105C0EF1100E44F8105C5EF81C5C02
:1009A000103444F81C5C5EF8185C44F8185C5EF87F
:1009B000145CE64544F8145CEAD1013312F00C0FE4
:1009C00001EB031102F00F0400EB031328D08E4655
:1009D000043C24F003064FEA940C1E441C1F5EF8EE
:1009E000045B44F8045FB442F9D10CF1010402F055
:1009F000030203EB840301EB840102F1FF3C4AB1E3
:100A00000CF1010C013B8C4411F8012B614503F8FA
:100A1000012FF9D170BD7047034602F1FF3C9BE7FF
:100A20002246EAE7844641EA000313F0030349D172
:100A3000403A23D30B6803604B6843608B68836044
:100A4000CB68C3600B6903614B6943618B69836148
:100A5000CB69C3610B6A03624B6A43628B6A836230
:100A6000CB6AC3620B6B03634B6B43638B6B836318
:100A7000CB6BC36340304031403ADBD230320BD3D2
:100A80000B6803604B6843608B688360CB68C3600E
:100A900010301031103AF3D20C3205D351F8043B28
:100AA00040F8043B043AF9D2043208D0D2071CBF04
:100AB00011F8013B00F8013B01D30B88038060462D
:100AC000704700BF082A13D38B07B1D010F003037F
:100AD000AED0C3F10403D21ADB071CBF11F8013BEF
:100AE00000F8013BA4D331F8023B20F8023B9FE71A
:100AF000043AD9D3013A11F8013B00F8013BF9D28D
:100B00000B7803704B7843708B7883706046704726
:100B10002DE9F041144641B30AB306460D4600F0F4
:100B20005FFA8442074602D8B4EB500F13D821462F
:100B30003046FFF71BFE804650B1BC422246294694
:100B400028BF3A46FFF76EFF29463046FFF78EFE74
:100B50004046BDE8F081A8464046BDE8F081A04689
:100B6000FFF784FE4046BDE8F0811146BDE8F04144
:100B7000FFF7FCBD2DE9F84F92461F460A698B68C6
:100B80000C469A42B8BF1A46CAF8002091F8433082
:100B90000646DDF8289013B10132CAF80020226819
:100BA00091065FD5DAF800300233CAF800302268C7
:100BB00012F0060F11461DD1E1689942D8BF1146C7
:100BC00018DD4FF0000804F1190B05E0E568DAF8CC
:100BD0000030ED1A45450CDD01235A4639463046B2
:100BE000C847013008F10108F0D14FF0FF30BDE8EF
:100BF000F88F216894F84330003B18BF01238A0620
:100C00000AD53021E21882F8431094F845105A1C96
:100C10002244023382F843103946304604F143023D
:100C2000C8470130E1D0D4E902202368DAF8005047
:100C300003F00603042B21691BD08A4220DD4FF00C
:100C40000008521A904400251A3401E0454517DA8D
:100C50000123224639463046C847013005F10105D7
:100C6000F4D1C2E712F0060F0DD0003B18BF0123EC
:100C7000D2E7401B8A4220EAE078E2DC0028E2DC8E
:100C80000020BDE8F88FE168DAF800309942D8BF5B
:100C9000114696DCAEE700BF2DE9F04717460A7E05
:100CA00084B00C46064698460C9D01F1430C002A80
:100CB00035D0A2F15803D9B2202969D8202B67D8A2
:100CC000DFE813F0E6006600660066006600660076
:100CD00066006600660066006600AC007000660094
:100CE00066006600660070006600660066006600CA
:100CF00021008300C60066006600B600660083001F
:100D000066006600EC002B682268181D6169286087
:100D100010061B6802D4520600F1E080196000231F
:100D2000E14623613B4621463046CDF8008003AAC8
:100D3000FFF720FF013020D04A463946304623696C
:100D4000C047013019D02368E0689B07DDF80C909C
:100D500018D5484516DD002504F1190A04E0E068BD
:100D6000A0EB0903AB420DDD012352463946304664
:100D7000C047013005F10105F1D14FF0FF3004B05B
:100D8000BDE8F0874845B8BF484604B0BDE8F087E5
:100D9000012084F8422004F142090023206184F8F4
:100DA0004330BFE72A682368111D1806296002D462
:100DB000590600F195801068014600286268C0F26B
:100DC00093804FF00A0E534815E020682B6810F00E
:100DD000800F53F8041B02D1400648BF89B26F2A26
:100DE00014BF4FF00A0E4FF0080E4A482B60002344
:100DF000626884F84330002AA26051DB236823F044
:100E00000403236000294BD1002A7BD1E146BEF1C7
:100E1000080F56D0ACEB0903236183E72A68012051
:100E2000116804322A6004F1420984F84210B4E7E0
:100E30002B6800211A1D2A60D3F80090626848468A
:100E400000F070F8002863D0A0EB09006060A4E710
:100E5000236843F02003236078222F4884F845203C
:100E60002A6813F0800F52F8041B03D113F0400FCF
:100E700018BF89B22A60DA0744BF43F02003236019
:100E800019B9236823F0200323604FF0100EAEE75A
:100E90005823204884F845302368E1E72368DBE7DE
:100EA0007546E146B1FBF5F30A4605FB131A1946F0
:100EB00010F80A30AA4209F8013DF3D2BEF1080F3A
:100EC000A8D12368DD07A5D5626823699A42A1DC11
:100ED000302309F1FF3989F800309BE719801EE7BC
:100EE000B2F90010084668E72D20002AA26084F8B5
:100EF000430002DB23F0040323600A250548AE46C5
:100F00004942CEE7037804F1420984F842307EE793
:100F1000606842E798180008AC180008704700BFE6
:100F2000704700BF5FFA81FC810744D00346511E21
:100F300022B909E09A0709D0013905D31846027889
:100F400001336245F6D170470020704718460329E7
:100F50000CD80029F8D00346014401E08B42F3D0BD
:100F6000184613F8012B6245F8D1704710B50CEB09
:100F70000C24024604EB044402E00439032915D989
:100F8000104652F8043B6340A3F1013E2EEA0303EE
:100F900013F0803FF1D00346014401E08B4208D0BA
:100FA000184613F8012B6245F8D110BD10460029F0
:100FB000F1D1002010BD1146C9E700BF002238B5AD
:100FC000064D044608462A6000F012F8431C00D083
:100FD00038BD2B68002BFBD0236038BDB401002046
:100FE00051F8043C181F002BBCBF0B58C0187047A9
:100FF000044A05491368002B08BF0B4618441060CB
:1010000018467047B8010020BC0100201FB5082316
:1010100040F2EA72CDE901320D23002200931E2135
:101020000423132000F092FA002005B05DF804FBC1
:10103000084AD36943F00103D3614FF0804307228C
:101040009A624FF6FF72DA621A6842F001021A6081
:10105000704700BF001002404FF0804300225A62E8
:101060005A6A8242FCD3704708B50146FFF7E0FF99
:1010700001B908BD4FF47A70FFF7EEFF0139F7E7C9
:10108000044B1A6842F480721A605A69D207FCD580
:10109000704700BF00540040024B5A691206FCD54D
:1010A0001861704700540040054B5A691106FCD581
:1010B0005A695207FCD51A6842F400721A607047E8
:1010C0000054004008B5FFF7DBFF78220146084BCB
:1010D0001A615A699207FCD540205A699B69FFF74B
:1010E000DBFF0846FFF7D8FFBDE80840FFF7DCBF8D
:1010F0000054004008B5FFF7C3FF78220146084BB3
:101100001A615A699207FCD500205A699B69FFF75A
:10111000C3FF0846FFF7C0FFBDE80840FFF7C4BFA4
:101120000054004010B50446A1F15000C0B2FFF7D2
:10113000E1FF04F00F00FFF7DDFF200940F0100091
:10114000BDE81040FFF7D6BF38B500250020E9B252
:10115000FFF7E8FF80240020013CFFF7B3FF14F005
:10116000FF04F8D10135082DF0D138BD08B52B4B5F
:10117000AE209A6942F009029A61DA6942F40012DB
:10118000DA61A3F582331A6822F070621A601A6875
:1011900042F070621A601A6822F070421A601A688F
:1011A00042F070421A60A3F538431A6842F40042D4
:1011B0001A601A6822F400421A605A6822F03F024C
:1011C0005A605A6842F024025A60DA696FF30B02DF
:1011D000DA61DA6942F0B402DA611A6A22F03F0297
:1011E0001A621A6A42F025021A621A6842F0010273
:1011F0001A60FFF77FFF2020FFF77CFF2020FFF71A
:1012000079FF8D20FFF776FF1420FFF773FFAF20E3
:10121000FFF770FFBDE80840FFF796BF00100240DF
:10122000F8B50F4F461E16F8013F03B9F8BDA3F1FC
:101230002002D2B23B2A28BF2023052503EB8303DB
:10124000A3F1A1043C4414F8010F013DFFF73AFF5C
:1012500015F0FF05F7D12846FFF734FFE3E700BF9D
:1012600004170008044B1A6842F480721A605A6925
:10127000D207FCD5704700BF00580040034B1861EF
:101280005A699207FCD55A699B697047005800401B
:10129000024B5A691206FCD518617047005800408D
:1012A000024A136843F4007313607047005800400B
:1012B000054B1A6822F480621A605A695206FCD5FE
:1012C0001869C0B2704700BF00580040054B1A684B
:1012D00042F480621A605A695206FCD51869C0B29D
:1012E000704700BF0058004008B5344B34499A6934
:1012F000D02042F009029A61DA6942F48002DA6190
:10130000A3F582335A6822F470625A605A6842F434
:1013100070625A605A6822F470425A605A6842F405
:1013200070425A600B6843F400430B600B6823F46F
:1013300000430B604B6823F03F034B604B6843F066
:1013400024034B60CB696FF30B03CB61CB6943F094
:10135000B403CB610B6A23F03F030B620B6A43F0CB
:1013600025030B620B6843F001030B60FFF77AFF64
:10137000FFF784FF0E20FFF78BFF4B695A07FCD560
:10138000D120FFF76FFFFFF779FFFFF791FF0146CD
:10139000D020FFF785FFFFF765FFFFF76FFF0E20F7
:1013A000FFF776FF01F0FC00FFF772FF044A536974
:1013B0005B07FCD5BDE80840FFF772BF0010024094
:1013C0000058004010B504460A21D020FFF74AFF1C
:1013D000FFF754FF0020FFF75BFF2078B0FBF1F32D
:1013E00001FB130040EA0310C0B2FFF751FF607821
:1013F000B0FBF1F301FB130040EA0310C0B2FFF7AA
:1014000047FFA078B0FBF1F301FB130040EA0310A3
:10141000C0B2FFF73DFFE078B0FBF1F301FB130032
:1014200040EA0310C0B2FFF733FF2079B0FBF1F3BD
:1014300001FB130040EA0310C0B2FFF729FF6079F7
:10144000B0FBF1F301FB130040EA0310C0B2FFF759
:101450001FFFE0883030C0B2B0FBF1F301FB130096
:1014600040EA0310C0B2FFF713FF044A53695B0759
:10147000FCD5BDE81040FFF713BF00BF0058004087
:1014800008B50146D020FFF7EDFEFFF7F7FE00207C
:10149000FFF7FEFE2C4A53695B07FCD5D120FFF70E
:1014A000E1FEFFF7EBFEFFF711FFC0F3021303EBC2
:1014B000830300F00F0000EB43000870FFF706FF06
:1014C000030903EB830300F00F0000EB43004870B7
:1014D000FFF7FCFEC0F3011303EB830300F00F00E2
:1014E00000EB43008870FFF7F1FE030903EB830371
:1014F00000F00F0000EB4300C870FFF7E7FE0309A0
:1015000003EB830300F00F0000EB43000871FFF7CB
:10151000DDFEC0F3001303EB830300F00F0000EBCC
:1015200043004871FFF7C4FE030903EB830200F098
:101530000F0303EB4203DBB203F5FA63CB80BDE894
:101540000840FFF7ADBE00BF005800402DE98048BD
:1015500091B08DF80F309DF850308DF80C208DF83B
:1015600010309DF854308DF80D108DF81130BDF805
:1015700058308DF80E00ADF81230FFF7F7FDFFF789
:10158000E3FD00210A20FFF7CDFD4A48FFF748FEA2
:101590004FF4FA60FFF768FDFFF7A6FEFFF7D4FDF2
:1015A00000210A20FFF7BEFD4348FFF739FE03ACD8
:1015B0004FF4FA60FFF758FD2046FFF703FF20467F
:1015C000FFF75EFFDFF8F4A0FFF7BEFD9DF81050B7
:1015D0009DF81160BDF812909DF80F202B465AF827
:1015E00022203749CDE9006907A8FEF727FE002130
:1015F0000846FFF797FD07A8FFF712FE0521002018
:10160000FFF790FD9DF80C709DF80D302D499DF869
:101610000E2000970BA8FEF711FE0BA8FFF700FEA7
:1016200094E8030005AB83E80300DFF894B020469C
:10163000FFF726FF9DF80C80B84510D09DF80D30BF
:101640009DF80E201F49CDF800800BA8FEF7F6FD8F
:1016500000200521FFF766FD0BA8FFF7E1FD8DF8DF
:1016600018508DF81960BDF81030BDF81820BDF87D
:1016700012709A4201D1B94515D09DF810509DF8CD
:1016800011609DF80F202B4659465AF82220CDE9CB
:10169000006707A8FEF7D2FD00210846FFF742FDCC
:1016A00007A8FFF7BDFD6420B946FFF7DDFC4746FC
:1016B000BDE700BF2B1800083718000850000020B5
:1016C00043180008561800080748084A0849121A23
:1016D000FFF7A8F90748084A0021121AFEF7D0FFC1
:1016E000FFF794FCFEE700BF000000207000002020
:0C16F000C818000870000020BC01002099
:0416FC00F8B500BF7E
:04170000F8B500BF79
:10170400000000000000005F000000070007001454
:101714007F147F14242A7F2A122313086462364913
:101724005522500005030000001C22410000412204
:101734001C0014083E081408083E08080050300035
:10174400000808080808006060000020100804026F
:101754003E5149453E00427F400042615149462185
:1017640041454B311814127F1027454545393C4AF1
:101774004949300171090503364949493606494941
:10178400291E003636000000563600000814224197
:1017940000141414141400412214080201510906FF
:1017A400324979413E7E1111117E7F494949363EC5
:1017B400414141227F4141221C7F494949417F09DE
:1017C4000909013E4149497A7F0808087F00417FA1
:1017D40041002040413F017F081422417F404040A6
:1017E400407F020C027F7F0408107F3E4141413E4E
:1017F4007F090909063E4151215E7F0919294646A0
:101804004949493101017F01013F4040403F1F20C8
:1018140040201F3F4038403F63140814630708709A
:1018240008076151494543454E564920535953547D
:10183400454D00494E4954205254432E2E2E002526
:10184400732C20253032642F253032642F25303418
:101854006400253032643A253032643A25303264EB
:101864000053554E004D4F4E0054554500574544C6
:1018740000544855004652490053415400000000AA
:10188400232D302B20000000686C4C0065666745F2
:101894004647000030313233343536373839414227
:1018A4004344454600000000303132333435363786
:0C18B40038396162636465660000000062
:0818C00064F1FF7F010000004C
:1018C800040000200000000078000020E000002054
:1018D8004801002000000000000000000000000097
:1018E80000000000000000000000000000000000F0
:1018F80000000000000000000000000000000000E0
:1019080000000000000000000000000000000000CF
:101918004218000865180008691800086D180008C2
:101928007118000875180008791800087D18000853
:04000005080016C910
:00000001FF
